{"abi":[{"type":"function","name":"MAX_DURATION","inputs":[],"outputs":[{"name":"","type":"uint256","internalType":"uint256"}],"stateMutability":"view"},{"type":"function","name":"MIN_AMOUNT","inputs":[],"outputs":[{"name":"","type":"uint256","internalType":"uint256"}],"stateMutability":"view"},{"type":"function","name":"MIN_DURATION","inputs":[],"outputs":[{"name":"","type":"uint256","internalType":"uint256"}],"stateMutability":"view"},{"type":"function","name":"USDC","inputs":[],"outputs":[{"name":"","type":"address","internalType":"address"}],"stateMutability":"view"},{"type":"function","name":"activeStreamCount","inputs":[],"outputs":[{"name":"","type":"uint256","internalType":"uint256"}],"stateMutability":"view"},{"type":"function","name":"cancel","inputs":[{"name":"streamId","type":"uint256","internalType":"uint256"}],"outputs":[],"stateMutability":"nonpayable"},{"type":"function","name":"createStream","inputs":[{"name":"recipient","type":"address","internalType":"address"},{"name":"deposit","type":"uint256","internalType":"uint256"},{"name":"duration","type":"uint256","internalType":"uint256"},{"name":"description","type":"string","internalType":"string"}],"outputs":[{"name":"streamId","type":"uint256","internalType":"uint256"}],"stateMutability":"nonpayable"},{"type":"function","name":"getRecipientStreams","inputs":[{"name":"recipient","type":"address","internalType":"address"}],"outputs":[{"name":"","type":"uint256[]","internalType":"uint256[]"}],"stateMutability":"view"},{"type":"function","name":"getSenderStreams","inputs":[{"name":"sender","type":"address","internalType":"address"}],"outputs":[{"name":"","type":"uint256[]","internalType":"uint256[]"}],"stateMutability":"view"},{"type":"function","name":"getStream","inputs":[{"name":"streamId","type":"uint256","internalType":"uint256"}],"outputs":[{"name":"","type":"tuple","internalType":"struct StreamPay.Stream","components":[{"name":"id","type":"uint256","internalType":"uint256"},{"name":"sender","type":"address","internalType":"address"},{"name":"recipient","type":"address","internalType":"address"},{"name":"deposit","type":"uint256","internalType":"uint256"},{"name":"ratePerSecond","type":"uint256","internalType":"uint256"},{"name":"startTime","type":"uint256","internalType":"uint256"},{"name":"stopTime","type":"uint256","internalType":"uint256"},{"name":"withdrawn","type":"uint256","internalType":"uint256"},{"name":"description","type":"string","internalType":"string"},{"name":"status","type":"uint8","internalType":"enum StreamPay.StreamStatus"}]}],"stateMutability":"view"},{"type":"function","name":"streamProgress","inputs":[{"name":"streamId","type":"uint256","internalType":"uint256"}],"outputs":[{"name":"pct","type":"uint256","internalType":"uint256"}],"stateMutability":"view"},{"type":"function","name":"topUp","inputs":[{"name":"streamId","type":"uint256","internalType":"uint256"},{"name":"addAmount","type":"uint256","internalType":"uint256"}],"outputs":[],"stateMutability":"nonpayable"},{"type":"function","name":"totalStreamed","inputs":[],"outputs":[{"name":"","type":"uint256","internalType":"uint256"}],"stateMutability":"view"},{"type":"function","name":"totalStreams","inputs":[],"outputs":[{"name":"","type":"uint256","internalType":"uint256"}],"stateMutability":"view"},{"type":"function","name":"withdraw","inputs":[{"name":"streamId","type":"uint256","internalType":"uint256"}],"outputs":[],"stateMutability":"nonpayable"},{"type":"function","name":"withdrawable","inputs":[{"name":"streamId","type":"uint256","internalType":"uint256"}],"outputs":[{"name":"","type":"uint256","internalType":"uint256"}],"stateMutability":"view"},{"type":"event","name":"StreamCancelled","inputs":[{"name":"streamId","type":"uint256","indexed":true,"internalType":"uint256"},{"name":"senderRefund","type":"uint256","indexed":false,"internalType":"uint256"},{"name":"recipientAmount","type":"uint256","indexed":false,"internalType":"uint256"}],"anonymous":false},{"type":"event","name":"StreamCompleted","inputs":[{"name":"streamId","type":"uint256","indexed":true,"internalType":"uint256"}],"anonymous":false},{"type":"event","name":"StreamCreated","inputs":[{"name":"streamId","type":"uint256","indexed":true,"internalType":"uint256"},{"name":"sender","type":"address","indexed":true,"internalType":"address"},{"name":"recipient","type":"address","indexed":true,"internalType":"address"},{"name":"deposit","type":"uint256","indexed":false,"internalType":"uint256"},{"name":"startTime","type":"uint256","indexed":false,"internalType":"uint256"},{"name":"stopTime","type":"uint256","indexed":false,"internalType":"uint256"},{"name":"description","type":"string","indexed":false,"internalType":"string"}],"anonymous":false},{"type":"event","name":"ToppedUp","inputs":[{"name":"streamId","type":"uint256","indexed":true,"internalType":"uint256"},{"name":"addedAmount","type":"uint256","indexed":false,"internalType":"uint256"},{"name":"newStopTime","type":"uint256","indexed":false,"internalType":"uint256"}],"anonymous":false},{"type":"event","name":"Withdrawn","inputs":[{"name":"streamId","type":"uint256","indexed":true,"internalType":"uint256"},{"name":"recipient","type":"address","indexed":true,"internalType":"address"},{"name":"amount","type":"uint256","indexed":false,"internalType":"uint256"}],"anonymous":false}],"bytecode":{"object":"0x6080806040523461001a5760015f556116ac908161001f8239f35b5f80fdfe6080806040526004361015610012575f80fd5b5f3560e01c90816322c1654c14611300575080632e1a7d4d1461108757806340e58ee514610e06578063894e9a0d14610b9957806389a3027114610b7a578063935b000414610b5d578063b1724b4614610b3f578063b6a6d17714610b24578063c019f4fc14610aae578063c349a4bb14610a7a578063ddbcb5fa14610a5d578063de643a7114610878578063dee04a72146101ce578063f11988e014610192578063f7afe9021461010c5763fc6ff96f146100cc575f80fd5b34610108575f366003190112610108575f545f1981019081116100f457602090604051908152f35b634e487b7160e01b5f52601160045260245ffd5b5f80fd5b3461010857602080600319360112610108576001600160a01b0361012e61131a565b165f52600560205260405f20906040519081602084549182815201935f5260205f20915f905b82821061017b576101778561016b81890382611438565b60405191829182611330565b0390f35b835486529485019460019384019390910190610154565b346101085760203660031901126101085760206101c6600435805f52600383526101c160405f2054151561136b565b6115cd565b604051908152f35b34610108576080366003190112610108576101e761131a565b60643567ffffffffffffffff811161010857366023820112156101085767ffffffffffffffff81600401351161010857366024826004013583010111610108576001600160a01b03821615610833576001600160a01b03821633146107ef57620f4240602435106107ab57603c60443510610766576301e133806044351161072157670de0b6b3a76400008060243502906024358204146024351517156100f45761029590604435906114fb565b9182156106dc576040516323b872dd60e01b8152336004820152306024808301919091523560448201526020816064815f601b60991b5af19081156106d1575f916106a2575b5015610642575f54916102ed8361157f565b5f556102fb60443542611402565b604051946103088661141b565b84865233602087015260018060a01b0384166040870152602435606087015260808601524260a086015260c08501525f60e08501526040516103586020601f19601f856004013501160182611438565b60048201358082526024830160208301375f60208360040135830101526101008501525f610120850152825f52600360205260405f20845181556001810160018060a01b03602087015116906bffffffffffffffffffffffff60a01b9182825416179055600282019060018060a01b0360408801511690825416179055606085015160038201556080850151600482015560a0850151600582015560c0850151600682015560e0850151600782015561010085015180519067ffffffffffffffff821161062e5761042c60088401546114c3565b601f81116105ea575b50602090601f831160011461057a57918061012094926009945f9261056f575b50508160011b915f199060031b1c19161760088201555b0194015193600385101561055b5760209460ff80198354169116179055335f526004845261049d8360405f2061158d565b60018060a01b0382165f52600584526104b98360405f2061158d565b6104c460025461157f565b600255827ff3512b3adb2cfe0492ad57e32562699901c62519ad3c0c5c75e35f578fc501016104f560443542611402565b9360405194602435865242888701526040860152608060608601528360040135608086015283600401356024850160a08701375f60a085600401358701015260018060a01b03169360a0813395601f8019916004013501168101030190a4604051908152f35b634e487b7160e01b5f52602160045260245ffd5b015190508980610455565b90601f19831691600885015f5260205f20925f5b8181106105d257509260019285926009966101209896106105ba575b505050811b01600882015561046c565b01515f1960f88460031b161c191690558980806105aa565b9293602060018192878601518155019501930161058e565b600884015f5260205f20601f840160051c810160208510610627575b601f830160051c8201811061061c575050610435565b5f8155600101610606565b5080610606565b634e487b7160e01b5f52604160045260245ffd5b60405162461bcd60e51b815260206004820152603260248201527f53747265616d5061793a2055534443207472616e73666572206661696c6564206044820152712d2064696420796f7520617070726f76653f60701b6064820152608490fd5b6106c4915060203d6020116106ca575b6106bc8183611438565b81019061145a565b846102db565b503d6106b2565b6040513d5f823e3d90fd5b60405162461bcd60e51b815260206004820152601e60248201527f53747265616d5061793a207261746520726f756e647320746f207a65726f00006044820152606490fd5b60405162461bcd60e51b815260206004820152601c60248201527f53747265616d5061793a206475726174696f6e20746f6f206c6f6e67000000006044820152606490fd5b60405162461bcd60e51b815260206004820152601d60248201527f53747265616d5061793a206475726174696f6e20746f6f2073686f72740000006044820152606490fd5b606460405162461bcd60e51b815260206004820152602060248201527f53747265616d5061793a206465706f7369742062656c6f77206d696e696d756d6044820152fd5b606460405162461bcd60e51b815260206004820152602060248201527f53747265616d5061793a2063616e6e6f742073747265616d20746f2073656c666044820152fd5b60405162461bcd60e51b815260206004820152601960248201527f53747265616d5061793a207a65726f20726563697069656e74000000000000006044820152606490fd5b3461010857604036600319011261010857600435602435815f52602090600382526108a860405f2054151561136b565b825f526003825260ff600960405f20015416600381101561055b576108cd90156113b6565b825f526003825260405f20906108f060018060a01b036001840154163314611472565b620f42408110610a18576040516323b872dd60e01b81523360048201523060248201526044810182905283816064815f601b60991b5af19081156106d1575f916109fb575b50156109b657670de0b6b3a7640000918282029282840414821517156100f4577f43aaaa1283a8e83fc06a9914af587a9e6c3daebd722d1d79903d997925b6522e936109a8600661098d6040966004860154906114fb565b936003810161099d878254611402565b905501928354611402565b8092558351928352820152a2005b60405162461bcd60e51b815260048101849052601f60248201527f53747265616d5061793a2055534443207472616e73666572206661696c6564006044820152606490fd5b610a129150843d86116106ca576106bc8183611438565b85610935565b60405162461bcd60e51b815260048101849052601f60248201527f53747265616d5061793a20746f702d75702062656c6f77206d696e696d756d006044820152606490fd5b34610108575f366003190112610108576020604051620f42408152f35b346101085760203660031901126101085760206101c6600435805f5260038352610aa960405f2054151561136b565b611519565b3461010857602080600319360112610108576001600160a01b03610ad061131a565b165f52600460205260405f20906040519081602084549182815201935f5260205f20915f905b828210610b0d576101778561016b81890382611438565b835486529485019460019384019390910190610af6565b34610108575f366003190112610108576020604051603c8152f35b34610108575f3660031901126101085760206040516301e133808152f35b34610108575f366003190112610108576020600254604051908152f35b34610108575f36600319011261010857604051601b60991b8152602090f35b34610108576020366003190112610108576004355f610120604051610bbd8161141b565b8281528260208201528260408201528260608201528260808201528260a08201528260c08201528260e082015260606101008201520152805f526003602052610c0b60405f2054151561136b565b5f52600360205260405f2060405190610c238261141b565b8054825260018101546001600160a01b0390811660208401526002820154166040808401919091526003820154606084015260048201546080840152600582015460a0840152600682015460c0840152600782015460e0840152516008820180545f91610c8f826114c3565b8085529160018116908115610ddf5750600114610da2575b50509181610cbb60099360ff950382611438565b610100850152015416600381101561055b5761012082015260405190602082528051602083015260018060a01b03602082015116604083015260018060a01b03604082015116606083015260608101516080830152608081015160a083015260a081015160c083015260c081015160e083015260e08101516101008301526101008101516101409081610120850152805190816101608601525f5b828110610d8b575050610120610180935f8584880101520151600381101561055b578492830152601f80199101168101030190f35b806020809284010151610180828901015201610d56565b5f908152602081209092505b818310610dc5575050810160200181610cbb610ca7565b600181602092949394548385880101520191019190610dae565b60ff191660208087019190915292151560051b85019092019250839150610cbb9050610ca7565b34610108576020806003193601126101085760043590815f5260038152610e3260405f2054151561136b565b815f526003815260ff600960405f20015416600381101561055b57610e5790156113b6565b815f526003815260405f2090600182019060018060a01b03610e7d818454163314611472565b610e86846115fb565b92610ea384610e9e60038801546007890154906114b6565b6114b6565b9460098101600160ff19825416179055610ebe60025461140f565b600255610ecd85600154611402565b60015583858481610fc7575b5050505084610f15575b857fe371136c8e803ec26d1f711d0b7c513a1afb0707bbbecf3a20c7ac65cc4896e460408787878351928352820152a2005b5460405163a9059cbb60e01b815291166001600160a01b03166004820152602481018490528181806044810103815f601b60991b5af19081156106d1575f91610faa575b5015610f66578480610ee3565b6064906040519062461bcd60e51b82526004820152601f60248201527f53747265616d5061793a2073656e64657220726566756e64206661696c6564006044820152fd5b610fc19150823d84116106ca576106bc8183611438565b85610f59565b6002939093015460405163a9059cbb60e01b815293166001600160a01b031660048401526024830152816044815f601b60991b5af19081156106d1575f9161106a575b50156110195786838584610ed9565b60405162461bcd60e51b8152600481018490526024808201527f53747265616d5061793a20726563697069656e74207472616e736665722066616044820152631a5b195960e21b6064820152608490fd5b6110819150843d86116106ca576106bc8183611438565b8761100a565b346101085760208060031936011261010857600435805f52600382526110b260405f2054151561136b565b805f526003825260ff600960405f20015416600381101561055b576110d790156113b6565b805f526003825260405f20916002830160018060a01b03908181541633036112bb57611102856115fb565b9485156112765760078101611118878254611402565b815561112687600154611402565b60015554600382015411801590611268575b611221575b50805460405163a9059cbb60e01b81529083166001600160a01b031660048201526024810186905283816044815f601b60991b5af19081156106d1575f91611204575b50156111b5575460405194855216927fcf7d23a3cbe4e8b36ff82fd1b05b1b17373dc7804b4ebbd6e2356716ef2023729190a3005b60405162461bcd60e51b815260048101849052602160248201527f53747265616d5061793a2055534443207769746864726177616c206661696c656044820152601960fa1b6064820152608490fd5b61121b9150843d86116106ca576106bc8183611438565b86611180565b600901600260ff1982541617905561123a60025461140f565b600255837f9f42d6cda766c435d861d2ff395b3e17ade9bf57cf770549b62662947ff15b4a5f80a28561113d565b506006810154421015611138565b60405162461bcd60e51b815260048101859052601e60248201527f53747265616d5061793a206e6f7468696e6720746f20776974686472617700006044820152606490fd5b60405162461bcd60e51b815260048101849052601860248201527f53747265616d5061793a206e6f7420726563697069656e7400000000000000006044820152606490fd5b34610108575f366003190112610108576020906001548152f35b600435906001600160a01b038216820361010857565b60209060206040818301928281528551809452019301915f5b828110611357575050505090565b835185529381019392810192600101611349565b1561137257565b606460405162461bcd60e51b815260206004820152602060248201527f53747265616d5061793a2073747265616d20646f6573206e6f742065786973746044820152fd5b156113bd57565b60405162461bcd60e51b815260206004820152601c60248201527f53747265616d5061793a2073747265616d206e6f7420616374697665000000006044820152606490fd5b919082018092116100f457565b80156100f4575f190190565b610140810190811067ffffffffffffffff82111761062e57604052565b90601f8019910116810190811067ffffffffffffffff82111761062e57604052565b90816020910312610108575180151581036101085790565b1561147957565b60405162461bcd60e51b815260206004820152601560248201527429ba3932b0b6a830bc9d103737ba1039b2b73232b960591b6044820152606490fd5b919082039182116100f457565b90600182811c921680156114f1575b60208310146114dd57565b634e487b7160e01b5f52602260045260245ffd5b91607f16916114d2565b8115611505570490565b634e487b7160e01b5f52601260045260245ffd5b5f52600360205260405f20600581015490814211156115795760060154804210156115725761154882426114b6565b906064820291808304606414901517156100f45761156f92611569916114b6565b906114fb565b90565b5050606490565b50505f90565b5f1981146100f45760010190565b8054906801000000000000000082101561062e57600182018082558210156115b9575f5260205f200155565b634e487b7160e01b5f52603260045260245ffd5b5f52600360205260405f2060ff600982015416600381101561055b576115f65761156f906115fb565b505f90565b6006810154428111611662576005820154611615916114b6565b60048201548181029181830414901517156100f457670de0b6b3a76400009004906003810154808311611659575b5060070154808211156115795761156f916114b6565b91506007611643565b506116716005820154426114b6565b61161556fea26469706673582212201e549ef28097cbc678685879c2f5ae1221178c138e1d08f93eeaef306d6fdcaa64736f6c63430008180033","linkReferences":{}},"methodIdentifiers":{"MAX_DURATION()":"b1724b46","MIN_AMOUNT()":"ddbcb5fa","MIN_DURATION()":"b6a6d177","USDC()":"89a30271","activeStreamCount()":"935b0004","cancel(uint256)":"40e58ee5","createStream(address,uint256,uint256,string)":"dee04a72","getRecipientStreams(address)":"f7afe902","getSenderStreams(address)":"c019f4fc","getStream(uint256)":"894e9a0d","streamProgress(uint256)":"c349a4bb","topUp(uint256,uint256)":"de643a71","totalStreamed()":"22c1654c","totalStreams()":"fc6ff96f","withdraw(uint256)":"2e1a7d4d","withdrawable(uint256)":"f11988e0"},"id":16}